:100000000C9462000C947F000C947F000C947F0091
:100010000C947F000C947F000C947F000C947F0064
:100020000C947F000C947F000C947F000C947F0054
:100030000C947F000C947F000C947F000C947F0044
:100040000C94E5010C947F000C947F000C947F00CD
:100050000C947F000C947F000C947F000C947F0024
:100060000C947F000C947F00000000002300260009
:10007000290000000008000201000003040700003E
:1000800000000000000000000000250028002B00F8
:1000900000000000240027002A00040404040404D3
:1000A0000404020202020202030303030303010227
:1000B00004081020408001020408102001020408F6
:1000C0001020E80311241FBECFEFD8E0DEBFCDBF64
:1000D00021E0A0E0B1E001C01D92A534B207E1F734
:1000E00010E0C2E6D0E004C02197FE010E94370470
:1000F000C136D107C9F70E942F020C943D040C941D
:10010000000090E0FC01E255FF4F249186569F4F7E
:10011000FC018491882399F090E0880F991FFC01DD
:10012000E057FF4FA591B491FC01EA57FF4F85912D
:1001300094918FB7F894EC91E22BEC938FBF0895D4
:10014000833081F028F4813099F08230A9F008954D
:100150008730A9F08830C9F08430B1F480918000F4
:100160008F7D03C0809180008F77809380000895F9
:1001700084B58F7784BD089584B58F7DFBCF809142
:10018000B0008F778093B00008958091B0008F7D8C
:10019000F9CFCF93DF93282F30E0F901EE58FF4FCE
:1001A0008491F901E255FF4FD491F901E656FF4FD2
:1001B000C491CC23A1F081110E94A000EC2FF0E0AB
:1001C000EE0FFF1FE859FF4FA591B491EC91ED237D
:1001D00081E090E009F480E0DF91CF91089580E024
:1001E00090E0FACF1F93CF93DF93282F30E0F901EF
:1001F000EE58FF4F8491F901E255FF4FD491F90178
:10020000E656FF4FC491CC23A9F0162F81110E940E
:10021000A000EC2FF0E0EE0FFF1FEA57FF4FA59173
:10022000B4918FB7F894EC91111108C0D095DE23EA
:10023000DC938FBFDF91CF911F910895DE2BF8CF14
:100240003FB7F8948091410190914201A091430100
:10025000B091440126B5A89B05C02F3F19F0019627
:10026000A11DB11D3FBFBA2FA92F982F8827BC0110
:10027000CD01620F711D811D911D42E0660F771F38
:10028000881F991F4A95D1F70895FC0180819181BB
:100290008130910519F47183608305C00297D9F705
:1002A00061307105C1F708958F929F92AF92BF920E
:1002B000CF92DF92EF92FF92CF93C82F61E00E941E
:1002C000F2000E9420014B015C0184E6C82ED12C73
:1002D000E12CF12C0E942001681979098A099B09F7
:1002E000683E734081059105A8F321E0C21AD10848
:1002F000E108F10888EE880E83E0981EA11CB11C6D
:10030000C114D104E104F10429F760E08C2FCF91EE
:10031000FF90EF90DF90CF90BF90AF909F908F9025
:100320000C94F2000F931F93CF93DF93082F162F97
:10033000D42FC8E06D2F661F6627661F802F0E948E
:10034000F200DD0F61E0812F0E94F20060E0812F5A
:100350000E94F200C15071F7DF91CF911F910F9170
:100360000895E0910001F09101018E0F9F1F90937D
:100370000101809300018A30910530F58D539E4F25
:10038000FC010C943704CD01D201D401D601D8016F
:10039000DA01DC01DE01E001E2014FE76FE080E11C
:1003A0000C9492014CE0FACF46EBF8CF4EE9F6CF31
:1003B0004CECF4CF4AEDF2CF48EFF0CF4EE0EECF69
:1003C0004EEFECCF4EECEACF08951F920F920FB68E
:1003D0000F9211242F933F938F939F93AF93BF93CB
:1003E00080913D0190913E01A0913F01B09140016B
:1003F00030913C0123E0230F2D3758F50196A11DC4
:10040000B11D20933C0180933D0190933E01A09348
:100410003F01B09340018091410190914201A09130
:100420004301B09144010196A11DB11D809341018A
:1004300090934201A0934301B0934401BF91AF91C7
:100440009F918F913F912F910F900FBE0F901F9012
:10045000189526E8230F0296A11DB11DD2CF7894DE
:1004600084B5826084BD84B5816084BD85B58260B9
:1004700085BD85B5816085BD80916E00816080936A
:100480006E001092810080918100826080938100D3
:1004900080918100816080938100809180008160E3
:1004A000809380008091B10084608093B10080913E
:1004B000B00081608093B00080917A008460809366
:1004C0007A0080917A00826080937A0080917A002D
:1004D000816080937A0080917A00806880937A00AE
:1004E0001092C10080E00E94810081E00E948100A2
:1004F00085E00E94810082E00E94810083E00E94EA
:10050000810084E00E9481008FE00E94810080E1F0
:100510000E94810086E00E94810088E00E948100A4
:1005200080E0682E80E0782E88248394912CC8E0A7
:10053000D1E07E01512C8701412C652D82E00E9483
:10054000F200642D83E00E94F2008CE00E94C9005A
:100550005C0190933B0180933A018DE00E94C900B9
:100560006C019093390180933801B501C8010E9454
:100570004501B601C80148960E94450180910601D7
:1005800090910701892B31F4C5010E94B101C60188
:100590000E94B1010A5F1F4F81E0481228C0ACE001
:1005A000EA0EF11C581220C09092070180920601B9
:1005B00008E011E06801F12CE12CF60180819181C5
:1005C0000097C1F460E085E00E94F20060E084E002
:1005D0000E94F20061E085E00E94F20060E085E0A8
:1005E0000E94F20060E01BC055245394A4CF442421
:1005F0004394A3CF8130910509F071C060E085E09C
:100600000E94F20060E084E00E94F20061E085E078
:100610000E94F20060E085E00E94F20061E084E068
:100620000E94F20061E085E00E94F200FFEFEF1A05
:10063000FF0A86E0C80ED11CA4E0EA16F10409F016
:10064000BCCF085E1F4FB1E008331B0709F0B2CFE3
:100650008BE00E94C900019709F060C080910401FD
:1006600090910501892B09F059C010E000E0FE01CE
:1006700090E080E00115110549F044815581D801D1
:1006800014962D913C912417350734F42081318143
:100690002130310509F48F01019636968430910599
:1006A00049F76896B1E0C833DB0709F70115110572
:1006B00009F488C0D8011296ED91FC91EA30F10559
:1006C000E0F4EB59FC4F0C9437047803D003D203C9
:1006D000D403D603D803DA03DC03DE03E003029776
:1006E00009F0A4CF60E085E00E94F20061E06FCFE6
:1006F0004FE760E081E00E94920162E070E0C80193
:100700000E94450186E090E00E9454018FEF9FEF28
:100710000E94B101909205018092040187E00E943D
:10072000C900019779F48091040190910501019726
:1007300049F4109205011092040140E060E081E06C
:100740000E9492018AE00E94C900EC01019771F4B5
:100750008091020190910301892B41F488E090E09F
:100760000E945401D0930301C093020189E00E94CA
:10077000C900019771F480910201909103010197E2
:1007800041F4109203011092020181E090E00E9476
:10079000B1016114710409F4CACE0E940000C7CEF1
:1007A0004CE0A7CF46EBA5CF4EE9A3CF4CECA1CFB1
:1007B0004AED9FCF48EF9DCF4EE09BCF4EEF99CFB4
:1007C0004EEC97CF43EF60E081E00E949201A6CF0C
:1007D0000F931F93CF93DF93E8E0F1E081E090E087
:1007E000918380839383828328E030E03583248360
:1007F0009783868342E050E05187408749E050E08C
:10080000538742879587848743E050E05787468720
:1008100067E070E0718B608B938B828BA4E0B0E01B
:10082000B58BA48BC6E0D0E0D78BC68B918F808F21
:1008300005E010E0138F028F158F048F978F868F3E
:10084000D1A3C0A3B3A3A2A395A384A377A366A3B4
:1008500051A740A793A782A735A724A78CE090E0D3
:1008600097A786A7DF91CF911F910F910895EE0F63
:0E087000FF1F0590F491E02D0994F894FFCF3E
:00000001FF
