:100000000C9462000C947F000C947F000C947F0091
:100010000C947F000C947F000C947F000C947F0064
:100020000C947F000C947F000C947F000C947F0054
:100030000C947F000C947F000C947F000C947F0044
:100040000C94CF020C947F000C947F000C947F00E2
:100050000C947F000C947F000C947F000C947F0024
:100060000C947F000C947F00000000002400270007
:100070002A0000000000250028002B0000000000DE
:1000800023002600290004040404040404040202DA
:100090000202020203030303030301020408102007
:1000A0004080010204081020010204081020000012
:1000B0000008000201000003040700000000000027
:1000C00000001F0411241FBECFEFD8E0DEBFCDBF5C
:1000D00021E0A0E0B1E001C01D92A134B207E1F738
:1000E00010E0C2E6D0E004C02197FE010E94C204E5
:1000F000C136D107C9F70E9419030C94FE040C9471
:100100000000833081F028F4813099F08230A9F02A
:1001100008958730A9F08830C9F08430B1F4809117
:1001200080008F7D03C0809180008F778093800056
:10013000089584B58F7784BD089584B58F7DFBCFF6
:100140008091B0008F778093B00008958091B000C7
:100150008F7DF9CFCF93DF93282F30E0F901E2555F
:10016000FF4F8491F901E656FF4FD491F901EA5708
:10017000FF4FC491CC23A1F081110E948100EC2F8C
:10018000F0E0EE0FFF1FE458FF4FA591B491EC9102
:10019000ED2381E090E009F480E0DF91CF910895B4
:1001A00080E090E0FACF1F93CF93DF93282F30E0C9
:1001B000F901E255FF4F8491F901E656FF4FD491C2
:1001C000F901EA57FF4FC491CC23A9F0162F8111F2
:1001D0000E948100EC2FF0E0EE0FFF1FEE58FF4F62
:1001E000A591B4918FB7F894EC91111108C0D095F6
:1001F000DE23DC938FBFDF91CF911F910895DE2B1B
:10020000F8CFCF93DF9390E0FC01E656FF4F2491A7
:100210008A579F4FFC0184918823D1F090E0880F8A
:10022000991FFC01E859FF4FA591B491FC01EE58CC
:10023000FF4FC591D49161110EC09FB7F8948C9176
:10024000E22FE0958E238C932881E223E8839FBFE1
:10025000DF91CF9108958FB7F894EC91E22BEC9356
:100260008FBFF6CF3FB7F89480913D0190913E014A
:10027000A0913F01B091400126B5A89B05C02F3F3A
:1002800019F00196A11DB11D3FBFBA2FA92F982FBC
:100290008827BC01CD01620F711D811D911D42E0B7
:1002A000660F771F881F991F4A95D1F708950F93FE
:1002B0001F93CF93DF93EC018B018885998502977B
:1002C00049F46130710509F436C04CF560E0011560
:1002D000110591F188859985049749F4013011053C
:1002E00009F451C09CF50115110509F43BC088853E
:1002F0009985059709F0C5C00A30110508F0C1C0FD
:10030000F801EB57FE4F0C94C204D701E101EF0155
:10031000010219021B0221022B0239023F02623044
:10032000710591F060E003301105A1F68C850E9403
:10033000D30060E005C061E08C850E94D30061E0DD
:100340008E850E94D300C6CF61E0F0CF0230110548
:1003500001F10330110559F661E08C850E94D3004C
:1003600060E01CC061E08C850E94D30060E08E8557
:100370000E94D30061E088890E94D30060E08A89EE
:100380000E94D300B4CF60E08C850E94D30061E06E
:10039000EECF60E08C850E94D30061E08E850E94E4
:1003A000D30060E088890E94D30061E0E8CF60E07C
:1003B0008C850E94D30061E08E850E94D30061E0AD
:1003C00009C060E08C850E94D30061E08E850E94A8
:1003D000D30060E088890E94D30060E00DC060E037
:1003E0008C850E94D30061E08E850E94D30060E07E
:1003F00088890E94D30061E08A890E94D30061E06D
:1004000011C060E08C850E94D30061E08E850E945F
:10041000D30060E088890E94D30061E08A890E944D
:10042000D30060E08C89DF91CF911F910F910C94E4
:10043000D30061E0E7CF61E08C850E94D30060E0EB
:10044000E5CF61E08C850E94D30060E08E850E943C
:10045000D30061E0DFCF61E08C850E94D30060E0D3
:100460008E850E94D30061E088890E94D30060E0FD
:10047000D5CF61E08C850E94D30060E09DCF60E025
:10048000F9CFDF91CF911F910F9108954F925F9215
:100490006F927F928F929F92AF92BF92CF92DF9294
:1004A000EF92FF920F931F93CF93DF93EC018B0199
:1004B00077FF04C000271127061B170B1616170617
:1004C0000CF04AC081E090E09983888384E0E82EB4
:1004D000F12C9AE0C92ED12C0115110509F44EC05A
:1004E0000E9432018E889F88A88CB98C2B013C0118
:1004F000481859086A087B088A809B80AC80BD80B8
:10050000481459046A047B0438F36E8B7F8B888F00
:10051000998F8A859B85288139812130310511F594
:1005200001969B878A872E813F818217930711F45A
:100530001B861A86015011098A859B852885398575
:10054000B6012530310509F0B7010E948F04BC01C6
:10055000CE010E945701C0CF672B09F4B7CF198293
:100560001882B4CF892B21F48E819F819B878A8743
:100570008A859B8501979B878A87DCCFDF91CF9106
:100580001F910F91FF90EF90DF90CF90BF90AF90B1
:100590009F908F907F906F905F904F9008951F92E3
:1005A0000F920FB60F9211242F933F938F939F9327
:1005B000AF93BF938091390190913A01A0913B0193
:1005C000B0913C013091380123E0230F2D3758F5CD
:1005D0000196A11DB11D209338018093390190939C
:1005E0003A01A0933B01B0933C0180913D01909171
:1005F0003E01A0913F01B09140010196A11DB11DA6
:1006000080933D0190933E01A0933F01B093400140
:10061000BF91AF919F918F913F912F910F900FBEFE
:100620000F901F90189526E8230F0296A11DB11D6B
:10063000D2CF789484B5826084BD84B5816084BD56
:1006400085B5826085BD85B5816085BD80916E0070
:10065000816080936E0010928100809181008260A1
:1006600080938100809181008160809381008091DE
:1006700080008160809380008091B10084608093CD
:10068000B1008091B00081608093B00080917A00C9
:10069000846080937A0080917A00826080937A00EF
:1006A00080917A00816080937A0080917A008068DE
:1006B00080937A001092C100209122013091230191
:1006C000032E000C440B550BC12C97E8D92E93E94F
:1006D000E92E93E0F92EC701B6010E94A30465E05C
:1006E000862E912CA12CB12CCA01B901A50194012F
:1006F0000E94A30420931E0130931F014093200108
:10070000509321012091080130910901032E000C22
:10071000440B550BC701B6010E94A304CA01B901DD
:10072000A50194010E94A3042093040130930501C4
:10073000409306015093070160E08CE00E940101A4
:10074000C0E0D0E001E010E08091360190913701E7
:10075000892B09F041C063E070E08CE191E00E94D8
:10076000460263E070E082E091E00E9446020E944F
:1007700032014B015C0184EFC82EDD24D394E12CBF
:10078000F12C0E943201681979098A099B09683E97
:10079000734081059105A8F321E0C21AD108E10850
:1007A000F10888EE880E83E0981EA11CB11CC114CC
:1007B000D104E104F10429F76DEF7FEF8CE191E0C2
:1007C0000E9446026DEF7FEF82E091E00E944602B8
:1007D00010933701009336018CE00E94AA007C013F
:1007E00081E0E816F10481F480910001909101010B
:1007F000892B51F463E070E08CE191E00E944602A5
:10080000F0920101E09200018DE00E94AA000197A0
:1008100081F48091000190910101019751F46DEFF5
:100820007FEF8CE191E00E9446021092010110924C
:100830000001209709F488CF0E94000085CFEF9235
:10084000FF920F931F93CF93DF93C2E0D1E01B86FB
:100850001A86198218821E8A1F8A188E198E82E3C0
:10086000E82EF12CFF82EE821D861C8681E090E04E
:100870009F878E8782E090E0998B888B83E090E061
:100880009B8B8A8B61E080E00E94010161E08E8594
:100890000E94010161E088890E94010161E08A896A
:1008A0000E9401011D8A1C8A04E010E01987088754
:1008B000CCE1D1E01B861A86198218821E8A1F8A13
:1008C000188E198EFF82EE8288E090E09D878C87DB
:1008D00089E090E09F878E878AE090E0998B888BF3
:1008E0008BE090E09B8B8A8B61E088E00E940101A5
:1008F00061E08E850E94010161E088890E9401010A
:1009000061E08A890E9401011D8A1C8A1987088773
:10091000DF91CF911F910F91FF90EF90089597FB7A
:10092000072E16F4009407D077FD09D00E94C80462
:1009300007FC05D03EF4909581959F4F08957095E2
:1009400061957F4F0895052E97FB1EF400940E9439
:10095000BA0457FD07D00E94DC0407FC03D04EF414
:100960000C94BA0450954095309521953F4F4F4FC8
:100970005F4F089590958095709561957F4F8F4F4B
:100980009F4F0895EE0FFF1F0590F491E02D0994FD
:10099000AA1BBB1B51E107C0AA1FBB1FA617B707A5
:1009A00010F0A61BB70B881F991F5A95A9F78095C1
:1009B0009095BC01CD010895A1E21A2EAA1BBB1B84
:1009C000FD010DC0AA1FBB1FEE1FFF1FA217B3071B
:1009D000E407F50720F0A21BB30BE40BF50B661F31
:1009E000771F881F991F1A9469F7609570958095F5
:1009F00090959B01AC01BD01CF010895F894FFCF04
:00000001FF
