:100000000C9462000C947F000C947F000C947F0091
:100010000C947F000C947F000C947F000C947F0064
:100020000C947F000C947F000C947F000C947F0054
:100030000C947F000C947F000C947F000C947F0044
:100040000C94C2020C947F000C947F000C947F00EF
:100050000C947F000C947F000C947F000C947F0024
:100060000C947F000C947F00000000002400270007
:100070002A0000000000250028002B0000000000DE
:1000800023002600290004040404040404040202DA
:100090000202020203030303030301020408102007
:1000A0004080010204081020010204081020000012
:1000B0000008000201000003040700000000000027
:1000C0000000170411241FBECFEFD8E0DEBFCDBF64
:1000D00021E0A0E0B1E001C01D92A334B207E1F736
:1000E00010E0C2E6D0E004C02197FE010E94BA04ED
:1000F000C136D107C9F70E940C030C94F6040C9486
:100100000000833081F028F4813099F08230A9F02A
:1001100008958730A9F08830C9F08430B1F4809117
:1001200080008F7D03C0809180008F778093800056
:10013000089584B58F7784BD089584B58F7DFBCFF6
:100140008091B0008F778093B00008958091B000C7
:100150008F7DF9CFCF93DF93282F30E0F901E2555F
:10016000FF4F8491F901E656FF4FD491F901EA5708
:10017000FF4FC491CC23A1F081110E948100EC2F8C
:10018000F0E0EE0FFF1FE458FF4FA591B491EC9102
:10019000ED2381E090E009F480E0DF91CF910895B4
:1001A00080E090E0FACF1F93CF93DF93282F30E0C9
:1001B000F901E255FF4F8491F901E656FF4FD491C2
:1001C000F901EA57FF4FC491CC23A9F0162F8111F2
:1001D0000E948100EC2FF0E0EE0FFF1FEE58FF4F62
:1001E000A591B4918FB7F894EC91111108C0D095F6
:1001F000DE23DC938FBFDF91CF911F910895DE2B1B
:10020000F8CFCF93DF9390E0FC01E656FF4F2491A7
:100210008A579F4FFC0184918823D1F090E0880F8A
:10022000991FFC01E859FF4FA591B491FC01EE58CC
:10023000FF4FC591D49161110EC09FB7F8948C9176
:10024000E22FE0958E238C932881E223E8839FBFE1
:10025000DF91CF9108958FB7F894EC91E22BEC9356
:100260008FBFF6CF0F931F93CF93DF93EC018B01DA
:1002700088859985029749F46130710509F436C083
:100280004CF560E00115110591F188859985049779
:1002900049F40130110509F451C09CF5011511050F
:1002A00009F43BC088859985059709F0C5C00A30D7
:1002B000110508F0C1C0F801E05AFE4F0C94BA04D1
:1002C000B201BC01CA01DC01F401F601FC01060225
:1002D00014021A026230710591F060E003301105DA
:1002E000A1F68C850E94D30060E005C061E08C859A
:1002F0000E94D30061E08E850E94D300C6CF61E0EA
:10030000F0CF0230110501F10330110559F661E01B
:100310008C850E94D30060E01CC061E08C850E9447
:10032000D30060E08E850E94D30061E088890E943E
:10033000D30060E08A890E94D300B4CF60E08C854E
:100340000E94D30061E0EECF60E08C850E94D30074
:1003500061E08E850E94D30060E088890E94D3000E
:1003600061E0E8CF60E08C850E94D30061E08E857B
:100370000E94D30061E009C060E08C850E94D30038
:1003800061E08E850E94D30060E088890E94D300DE
:1003900060E00DC060E08C850E94D30061E08E8536
:1003A0000E94D30060E088890E94D30061E08A89BE
:1003B0000E94D30061E011C060E08C850E94D300F0
:1003C00061E08E850E94D30060E088890E94D3009E
:1003D00061E08A890E94D30060E08C89DF91CF912F
:1003E0001F910F910C94D30061E0E7CF61E08C8501
:1003F0000E94D30060E0E5CF61E08C850E94D300CD
:1004000060E08E850E94D30061E0DFCF61E08C85E3
:100410000E94D30060E08E850E94D30061E088894D
:100420000E94D30060E0D5CF61E08C850E94D300AC
:1004300060E09DCF60E0F9CFDF91CF911F910F91E8
:1004400008958F929F92AF92BF92CF92DF92EF92D8
:10045000FF920F931F93CF93DF93EC018B0177FFF4
:1004600004C000271127061B170B161617060CF0E1
:100470006AC081E090E09983888354E0E52EF12CF6
:100480006AE0C62ED12C0115110509F46EC03FB7E4
:10049000F89480913A0190913B01A0913C01B09178
:1004A0003D0126B5A89B05C02F3F19F00196A11D5F
:1004B000B11D3FBFBA2FA92F982F8827820F911DFA
:1004C000A11DB11D42E0880F991FAA1FBB1F4A95AD
:1004D000D1F74E895F89688D798D4C015D01841A51
:1004E000950AA60AB70A4A815B816C817D818416D0
:1004F0009506A606B70638F28E8B9F8BA88FB98F0C
:100500008A859B85288139812130310511F5019635
:100510009B878A872E813F818217930711F41B8660
:100520001A86015011098A859B8528853985B6016F
:100530002530310509F0B7010E948704BC01CE01C6
:100540000E943201A0CF672B09F497CF198218823D
:1005500094CF892B21F48E819F819B878A878A85FE
:100560009B8501979B878A87DCCFDF91CF911F9175
:100570000F91FF90EF90DF90CF90BF90AF909F9042
:100580008F9008951F920F920FB60F9211242F9300
:100590003F938F939F93AF93BF9380913F0190912F
:1005A0004001A0914101B091420130913E0123E010
:1005B000230F2D3758F50196A11DB11D20933E0143
:1005C00080933F0190934001A0934101B093420179
:1005D00080913A0190913B01A0913C01B0913D0185
:1005E0000196A11DB11D80933A0190933B01A09308
:1005F0003C01B0933D01BF91AF919F918F913F918D
:100600002F910F900FBE0F901F90189526E8230F83
:100610000296A11DB11DD2CF789484B5826084BDAD
:1006200084B5816084BD85B5826085BD85B58160F6
:1006300085BD80916E00816080936E001092810074
:10064000809181008260809381008091810081602F
:1006500080938100809180008160809380008091F0
:10066000B10084608093B1008091B000816080937C
:10067000B00080917A00846080937A0080917A0043
:10068000826080937A0080917A00816080937A0002
:1006900080917A00806880937A001092C100209146
:1006A000240130912501032E000C440B550BC12C65
:1006B00087E8D82E83E9E82E83E0F82EC701B6013B
:1006C0000E949B0495E0892E912CA12CB12CCA018B
:1006D000B901A50194010E949B042093200130934D
:1006E0002101409322015093230120910A0130916E
:1006F0000B01032E000C440B550BC701B6010E94E1
:100700009B04CA01B901A50194010E949B04209396
:10071000060130930701409308015093090160E0FE
:100720008CE00E94010100E010E0EE24E394F12C43
:100730008091380190913901892BE1F463E070E0F8
:100740008EE191E00E94210263E070E084E091E09C
:100750000E9421026DEF7FEF8EE191E00E94210265
:100760006DEF7FEF84E091E00E942102F092390169
:10077000E09238018CE00E94AA00EC01019781F41C
:100780008091020190910301892B51F463E070E0A4
:100790008EE191E00E942102D0930301C0930201F7
:1007A0008DE00E94AA00019781F48091020190914E
:1007B0000301019751F46DEF7FEF8EE191E00E940C
:1007C0002102109203011092020184E00E94AA000B
:1007D000EC01019781F48091000190910101892B36
:1007E00051F463E070E084E091E00E942102D09334
:1007F0000101C093000185E00E94AA00019781F4E5
:100800008091000190910101019751F46DEF7FEF0C
:1008100084E091E00E9421021092010110920001F7
:100820000115110509F484CF0E94000081CFEF92D9
:10083000FF920F931F93CF93DF93C4E0D1E01B8609
:100840001A86198218821E8A1F8A188E198E82E3D0
:10085000E82EF12CFF82EE821D861C8681E090E05E
:100860009F878E8782E090E0998B888B83E090E071
:100870009B8B8A8B61E080E00E94010161E08E85A4
:100880000E94010161E088890E94010161E08A897A
:100890000E9401011D8A1C8A04E010E01987088764
:1008A000CEE1D1E01B861A86198218821E8A1F8A21
:1008B000188E198EFF82EE8288E090E09D878C87EB
:1008C00089E090E09F878E878AE090E0998B888B03
:1008D0008BE090E09B8B8A8B61E088E00E940101B5
:1008E00061E08E850E94010161E088890E9401011A
:1008F00061E08A890E9401011D8A1C8A1987088784
:10090000DF91CF911F910F91FF90EF90089597FB8A
:10091000072E16F4009407D077FD09D00E94C0047A
:1009200007FC05D03EF4909581959F4F08957095F2
:1009300061957F4F0895052E97FB1EF400940E9449
:10094000B20457FD07D00E94D40407FC03D04EF434
:100950000C94B20450954095309521953F4F4F4FE0
:100960005F4F089590958095709561957F4F8F4F5B
:100970009F4F0895EE0FFF1F0590F491E02D09940D
:10098000AA1BBB1B51E107C0AA1FBB1FA617B707B5
:1009900010F0A61BB70B881F991F5A95A9F78095D1
:1009A0009095BC01CD010895A1E21A2EAA1BBB1B94
:1009B000FD010DC0AA1FBB1FEE1FFF1FA217B3072B
:1009C000E407F50720F0A21BB30BE40BF50B661F41
:1009D000771F881F991F1A9469F760957095809505
:1009E00090959B01AC01BD01CF010895F894FFCF14
:00000001FF
