:100000000C9462000C947F000C947F000C947F0091
:100010000C947F000C947F000C947F000C947F0064
:100020000C947F000C947F000C947F000C947F0054
:100030000C947F000C947F000C947F000C947F0044
:100040000C9473010C947F000C947F000C947F003F
:100050000C947F000C947F000C947F000C947F0024
:100060000C947F000C947F00000000002300260009
:10007000290000000008000201000003040700003E
:1000800000000000000000000000250028002B00F8
:1000900000000000240027002A00040404040404D3
:1000A0000404020202020202030303030303010227
:1000B00004081020408001020408102001020408F6
:1000C0001020570311241FBECFEFD8E0DEBFCDBFF5
:1000D00021E0A0E0B1E001C01D92AF33B207E1F72B
:1000E00010E0C2E6D0E004C02197FE010E94A60302
:1000F000C136D107C9F70E94BD010C94AC030C9422
:10010000000090E0FC01E255FF4F249186569F4F7E
:10011000FC018491882399F090E0880F991FFC01DD
:10012000E057FF4FA591B491FC01EA57FF4F85912D
:1001300094918FB7F894EC91E22BEC938FBF0895D4
:10014000833081F028F4813099F08230A9F008954D
:100150008730A9F08830C9F08430B1F480918000F4
:100160008F7D03C0809180008F77809380000895F9
:1001700084B58F7784BD089584B58F7DFBCF809142
:10018000B0008F778093B00008958091B0008F7D8C
:10019000F9CFCF93DF93282F30E0F901EE58FF4FCE
:1001A0008491F901E255FF4FD491F901E656FF4FD2
:1001B000C491CC23A1F081110E94A000EC2FF0E0AB
:1001C000EE0FFF1FE859FF4FA591B491EC91ED237D
:1001D00081E090E009F480E0DF91CF91089580E024
:1001E00090E0FACF1F93CF93DF93282F30E0F901EF
:1001F000EE58FF4F8491F901E255FF4FD491F90178
:10020000E656FF4FC491CC23A9F0162F81110E940E
:10021000A000EC2FF0E0EE0FFF1FEA57FF4FA59173
:10022000B4918FB7F894EC91111108C0D095DE23EA
:10023000DC938FBFDF91CF911F910895DE2BF8CF14
:100240003FB7F89480913B0190913C01A0913D0112
:10025000B0913E0126B5A89B05C02F3F19F001962D
:10026000A11DB11D3FBFBA2FA92F982F8827BC0110
:10027000CD01620F711D811D911D42E0660F771F38
:10028000881F991F4A95D1F70895FC0180819181BB
:100290008130910519F47183608305C00297D9F705
:1002A00061307105C1F708950F931F93CF93DF93CA
:1002B000082F162FD42FC8E06D2F661F6627661FE4
:1002C000802F0E94F200DD0F61E0812F0E94F2007A
:1002D00060E0812F0E94F200C15071F7DF91CF9151
:1002E0001F910F9108951F920F920FB60F92112434
:1002F0002F933F938F939F93AF93BF938091370139
:1003000090913801A0913901B0913A0130913601B4
:1003100023E0230F2D3758F50196A11DB11D209321
:1003200036018093370190933801A0933901B0933F
:100330003A0180913B0190913C01A0913D01B09127
:100340003E010196A11DB11D80933B0190933C019C
:10035000A0933D01B0933E01BF91AF919F918F91CA
:100360003F912F910F900FBE0F901F90189526E888
:10037000230F0296A11DB11DD2CF789484B582605F
:1003800084BD84B5816084BD85B5826085BD85B539
:10039000816085BD80916E00816080936E001092B7
:1003A0008100809181008260809381008091810032
:1003B00081608093810080918000816080938000C3
:1003C0008091B10084608093B1008091B000816021
:1003D0008093B00080917A00846080937A0080914D
:1003E0007A00826080937A0080917A0081608093A5
:1003F0007A0080917A00806880937A001092C10020
:1004000080E00E94810081E00E94810085E00E94DE
:10041000810082E00E94810083E00E94810084E0EC
:100420000E9481008FE00E94810086E00E9481008E
:1004300092E3492E91E0592E20E0622E20E0722EA8
:1004400002E011E07801312CE701212C632D82E0DC
:100450000E94F200622D83E00E94F2008CE00E9474
:10046000C9004C0190933501809334018DE00E94C6
:10047000C9006C019093330180933201B401CE0125
:100480000E944501B601CE0148960E94450126967C
:1004900021E0221224C08CE0E80EF11C32121CC0B4
:1004A000C2E0D1E06E01F12CE12CD6018D919C913E
:1004B0000097C1F460E085E00E94F20060E084E013
:1004C0000E94F20061E085E00E94F20060E085E0B9
:1004D0000E94F20060E01BC033243394B5CF222485
:1004E0002394B4CF8130910509F06FC060E085E0BE
:1004F0000E94F20060E084E00E94F20061E085E08A
:100500000E94F20060E085E00E94F20061E084E079
:100510000E94F20061E085E00E94F200BFEFEB1A5A
:10052000FB0AE6E0CE0ED11CF4E0EF16F10409F070
:10053000BCCF68964C165D0609F0B4CF8BE00E94E4
:10054000C900019709F086C08091000190910101D6
:10055000892B09F07FC0F12CE12CF80190E080E0BC
:10056000E114F10449F044815581D70114962D918D
:100570003C912417350734F4208131812130310535
:1005800009F47F01019636968430910549F7085E9B
:100590001F4F0C171D0709F7E114F10409F481C07E
:1005A000D7011296ED91FC91EA30F105E0F4E552A5
:1005B000FD4F0C94A603EE023F03410343034503A2
:1005C000470349034B034D034F03029709F0A6CF9E
:1005D00060E085E00E94F20061E071CF4FE760E0EB
:1005E00081E00E94540162E070E0C7010E94450171
:1005F00061E086E00E94F2000E9420014B015C0154
:1006000084E6C82ED12CE12CF12C0E94200168191F
:1006100079098A099B09683E734081059105A8F311
:10062000B1E0CB1AD108E108F108E8EE8E0EE3E064
:100630009E1EA11CB11CC114D104E104F10429F7D0
:1006400060E086E00E94F20081E090E0909301017A
:100650008093000187E00E94C900019749F410923D
:1006600001011092000140E060E081E00E9454012D
:100670006114710409F4E4CE0E940000E1CE4CE064
:10068000AECF46EBACCF4EE9AACF4CECA8CF4AEDAB
:10069000A6CF48EFA4CF4EE0A2CF4EEFA0CF4EECB6
:1006A0009ECF43EF60E081E00E945401D3CF0F93CF
:1006B0001F93CF93DF93E2E0F1E081E090E091833C
:1006C00080839383828328E030E03583248397837B
:1006D000868342E050E05187408749E050E05387ED
:1006E00042879587848743E050E05787468767E0D5
:1006F00070E0718B608B938B828BA4E0B0E0B58B44
:10070000A48BC6E0D0E0D78BC68B918F808F05E09D
:1007100010E0138F028F158F048F978F868FD1A3D0
:10072000C0A3B3A3A2A395A384A377A366A351A751
:1007300040A793A782A735A724A78CE090E097A7AE
:1007400086A7DF91CF911F910F910895EE0FFF1FA4
:0C0750000590F491E02D0994F894FFCF7F
:00000001FF
