:100000000C9462000C947F000C947F000C947F0091
:100010000C947F000C947F000C947F000C947F0064
:100020000C947F000C947F000C947F000C947F0054
:100030000C947F000C947F000C947F000C947F0044
:100040000C94D6010C947F000C947F000C947F00DC
:100050000C947F000C947F000C947F000C947F0024
:100060000C947F000C947F00000000002300260009
:10007000290000000008000201000003040700003E
:1000800000000000000000000000250028002B00F8
:1000900000000000240027002A00040404040404D3
:1000A0000404020202020202030303030303010227
:1000B00004081020408001020408102001020408F6
:1000C0001020450311241FBECFEFD8E0DEBFCDBF07
:1000D00021E0A0E0B1E001C01D92AD33B207E1F72D
:1000E00010E0C2E6D0E004C02197FE010E94940314
:1000F000C136D107C9F70E9420020C949A030C94D0
:10010000000090E0FC01E255FF4F249186569F4F7E
:10011000FC018491882399F090E0880F991FFC01DD
:10012000E057FF4FA591B491FC01EA57FF4F85912D
:1001300094918FB7F894EC91E22BEC938FBF0895D4
:10014000833081F028F4813099F08230A9F008954D
:100150008730A9F08830C9F08430B1F480918000F4
:100160008F7D03C0809180008F77809380000895F9
:1001700084B58F7784BD089584B58F7DFBCF809142
:10018000B0008F778093B00008958091B0008F7D8C
:10019000F9CFCF93DF93282F30E0F901EE58FF4FCE
:1001A0008491F901E255FF4FD491F901E656FF4FD2
:1001B000C491CC23A1F081110E94A000EC2FF0E0AB
:1001C000EE0FFF1FE859FF4FA591B491EC91ED237D
:1001D00081E090E009F480E0DF91CF91089580E024
:1001E00090E0FACF1F93CF93DF93282F30E0F901EF
:1001F000EE58FF4F8491F901E255FF4FD491F90178
:10020000E656FF4FC491CC23A9F0162F81110E940E
:10021000A000EC2FF0E0EE0FFF1FEA57FF4FA59173
:10022000B4918FB7F894EC91111108C0D095DE23EA
:10023000DC938FBFDF91CF911F910895DE2BF8CF14
:100240003FB7F8948091390190913A01A0913B0118
:10025000B0913C0126B5A89B05C02F3F19F001962F
:10026000A11DB11D3FBFBA2FA92F982F8827BC0110
:10027000CD01620F711D811D911D42E0660F771F38
:10028000881F991F4A95D1F708958F929F92AF9238
:10029000BF92CF92DF92EF92FF920E9420014B011A
:1002A0005C0188EEC82E83E0D82EE12CF12C0E9450
:1002B0002001681979098A099B09683E7340810504
:1002C0009105A8F321E0C21AD108E108F10888EEEF
:1002D000880E83E0981EA11CB11CC114D104E10456
:1002E000F10429F7FF90EF90DF90CF90BF90AF908F
:1002F0009F908F900895FC018081918181309105BC
:1003000019F47183608305C00297D9F761307105D4
:10031000C1F708950F931F93CF93DF93082F162FE4
:10032000D42FC8E06D2F661F6627661F802F0E949E
:10033000F200DD0F61E0812F0E94F20060E0812F6A
:100340000E94F200C15071F7DF91CF911F910F9180
:100350000895DC011296ED91FC91EA30F10528F543
:10036000EC54FE4F0C949403BE01C301C501C701B8
:10037000C901CB01CD01CF01D101D3014FE760E02D
:1003800081E00C948A014CE0FACF46EBF8CF4EE9BD
:10039000F6CF4CECF4CF4AEDF2CF48EFF0CF4EE081
:1003A000EECF4EEFECCF4EECEACF08951F920F92B6
:1003B0000FB60F9211242F933F938F939F93AF9378
:1003C000BF938091350190913601A0913701B09192
:1003D00038013091340123E0230F2D3758F5019671
:1003E000A11DB11D209334018093350190933601F6
:1003F000A0933701B09338018091390190913A016F
:10040000A0913B01B0913C010196A11DB11D8093CB
:10041000390190933A01A0933B01B0933C01BF9105
:10042000AF919F918F913F912F910F900FBE0F90A1
:100430001F90189526E8230F0296A11DB11DD2CF5B
:10044000789484B5826084BD84B5816084BD85B5AF
:10045000826085BD85B5816085BD80916E008160BB
:1004600080936E0010928100809181008260809361
:100470008100809181008160809381008091800063
:100480008160809380008091B10084608093B1008E
:100490008091B00081608093B00080917A00846088
:1004A00080937A0080917A00826080937A008091B4
:1004B0007A00816080937A0080917A0080688093CE
:1004C0007A001092C10080E00E94810081E00E94C9
:1004D000810085E00E94810082E00E94810083E02B
:1004E0000E94810084E00E94810090E0A92E90E0AB
:1004F000B92E80E0E82E81E0F82E8701712CE8010A
:10050000612C672D82E00E94F200662D83E00E943C
:10051000F2008CE00E94C9004C019093330180935B
:1005200032018DE00E94C9006C01909331018093EB
:100530003001B401CE010E947B01B601CE01489684
:100540000E947B01269681E0681223C0045F1F4F42
:1005500078121CC000E011E06801D0E0C0E0F601B4
:10056000808191810097C1F460E085E00E94F200F3
:1005700060E084E00E94F20061E085E00E94F20009
:1005800060E085E00E94F20060E01BC07724739475
:10059000B6CF66246394B5CF8130910509F066C06B
:1005A00060E085E00E94F20060E084E00E94F200DA
:1005B00061E085E00E94F20060E085E00E94F200C8
:1005C00061E084E00E94F20061E085E00E94F200B8
:1005D0002196F6E0CF0ED11CC430D10509F0BFCF73
:1005E000085E1F4F81E00033180709F0B5CF8BE09C
:1005F0000E94C900019799F5912C812CE701D12C1B
:10060000C12C8114910441F02C813D81F40184813D
:1006100095818217930754F488819981019731F469
:10062000CE010E94A9010E9445014E01FFEFCF1AA1
:10063000DF0A269684E0C816D10419F7E8E1EE0E29
:10064000F11C0E151F05D1F681149104C1F0C401EF
:100650000E94A90162E070E0C4010E947B01A11424
:10066000B10409F446CF0E94000043CF029709F07D
:10067000AFCF60E085E00E94F20061E07ACF43EF07
:1006800060E081E00E948A01EACF0F931F93CF932D
:10069000DF93E0E0F1E081E090E091838083938359
:1006A000828328E030E0358324839783868342E089
:1006B00050E05187408749E050E053874287958753
:1006C000848743E050E05787468767E070E0718B8E
:1006D000608B938B828BA4E0B0E0B58BA48BC6E0DB
:1006E000D0E0D78BC68B918F808F05E010E0138F01
:1006F000028F158F048F978F868FD1A3C0A3B3A3CA
:10070000A2A395A384A377A366A351A740A793A709
:1007100082A735A724A78CE090E097A786A7DF9152
:10072000CF911F910F910895EE0FFF1F0590F49147
:08073000E02D0994F894FFCFBD
:00000001FF
